:020000040800F2
:10000000F8C10220C1010008B9BC0108CD3B0108BC
:10001000D5B101086D2800082D9B020800000000E2
:10002000000000000000000000000000F3010008D4
:100030005D4D0008000000000110000835D90108DE
:10004000FB010008FB010008FB010008FB010008A0
:10005000FB010008FB010008FB010008FB01000890
:10006000FB010008FB010008FB010008FB01000880
:10007000FB010008FB010008FB010008FB01000870
:10008000FB010008FB010008FB010008FB01000860
:10009000FB010008FB010008FB010008FB01000850
:1000A000FB010008FB010008FB010008FB01000840
:1000B000D5500208FB01000849510208FB01000865
:1000C000FB010008FB010008FB010008FB01000820
:1000D000FB010008555E0208FB010008FB01000857
:1000E000FB010008FB010008FB010008FB01000800
:1000F000FB010008FB010008FB010008FB010008F0
:10010000FB0100085D2A0208FB010008FB01000852
:10011000FB010008FB010008FB010008FB010008CF
:10012000FB010008FB010008FB010008913E0008EC
:10013000FB010008FB010008FB010008FB010008AF
:10014000FB010008FB010008FB010008FB0100089F
:10015000FB010008FB010008FB0100080D5F02081D
:10016000FB010008FB010008FB010008FB0100087F
:10017000FB01000841F70108FB010008FB01000832
:10018000FB010008FB010008FB010008FB0100085F
:10019000FB010008FB010008FB010008FB0100084F
:1001A00055970108FB010008853E0008DFF80CD0D8
:1001B00000F068FC004800470DB50408F8C10220B3
:1001C0000E488047DFF83800016841F47001016093
:1001D000BFF34F8FDFF82C00016821F04041016030
:1001E000BFF36F8F08480047FEE7FEE7FEE7FEE734
:1001F000FEE7FEE7FEE7FEE7FEE7FEE775490208D9
:1002000088ED00E034EF00E0AD01000872B6704701
:1002100062B67047EFF3108072B6704780F31088B3
:10022000704730BF704720BF7047B0FA80F070470A
:1002300090FAA0F0B0FA80F0704790FAA0F0704702
:100240002DE9F05F0546002092469B46884606460B
:10025000814640241BE0284641464746224600F09E
:10026000F5FA53465A46C01A914110D31146184622
:10027000224600F0DCFA2D1A67EB01084F462246B1
:100280000120002100F0D3FA17EB00094E41201E97
:10029000A4F10104DFDC484631462A464346BDE866
:1002A000F09F10B5441A0346944209D284181144B1
:1002B00003E011F8013D04F8013D521EF9D210BDD2
:1002C00040EA0104A40703D009E010C9121F10C3BB
:1002D000042AFAD203E011F8014B03F8014B521E35
:1002E000F9D210BDD2B201E000F8012B491EFBD2B9
:1002F00070470022F6E710B513460A460446194631
:10030000FFF7F0FF204610BD10B5044604E00B785F
:1003100000F8013B03B1491C521EF8D2204610BD23
:10032000421C10F8011B0029FBD1801A704710B540
:10033000002200E0521C835C8C5CA34201D1002BA4
:10034000F8D1D8B2E1B2401A10BD30B50446002051
:10035000034600E05B1C934203D2E05CCD5C401B93
:10036000F8D030BD034611F8012B00F8012B002A0C
:10037000F9D1184670472DE9FE4F804681EA030007
:10038000C00F0C46009021F0004123F00045B8EB6F
:100390000200A94105D24046214690461C460B4624
:1003A000024623F00040104347D0270DC7F30A0050
:1003B000C3F30A510290401A019040286BDAC3F34C
:1003C000130040F4801B0098924620B10023D2EB2A
:1003D000030A63EB0B0B01985946C0F140025046EB
:1003E00000F025FA06460D4650465946019A00F09F
:1003F0003DFA10EB08006141002487EA115284EABB
:10040000E7731A4340D0009A62B3019A012A4FEA77
:10041000075215DC001B61EB02014FF0004202EABB
:100420000752CDE90042001C41F5801132462B46AF
:1004300000F0C2FA03B0BDE8F08F40462146F9E76C
:10044000001B61EB0201001C41F5801300185B41A9
:100450002018A2F5001747EB030140EAD570B61942
:100460006D4111E06D084FEA360645EAC0754FEA66
:100470000752001B61EB0201001C41F58011490885
:100480004FEA30000019514132462B4603B0BDE817
:10049000F04F00F082BA0098012240000023D0EB18
:1004A000020263EBE073009821464FEAE074B8EB78
:1004B000000061EB0401E9E783F000435BE781F0B2
:1004C000004158E72DE9FE4F81EA030404F000449F
:1004D00021F0004100944FF0000B23F0004350EA5C
:1004E00001045ED052EA03045BD0C3F30A54C1F3A3
:1004F0000A552C44A4F2F3340194A0FB0254C1F336
:10050000130141F48011C3F3130343F4801301FB7F
:10051000024400FB034E840A970A44EA815447EAE6
:100520008357A4FB076802958D0A05FB07854FEAF0
:10053000932C04FB0C542705029D4FEA065847EA0A
:100540001637B5EB08056EEB070C870E920E47EADF
:10055000811742EA8312A7FB0201B6EB0B0164EBA1
:1005600000042B0D43EA0C335E1844EB1C50DA46B2
:100570005146E7FB0201C5F313044FEA0B3343EA8C
:1005800014534FEA0432019C43EA0603A4F10C041D
:100590000294009CCDE900B400F00EFA03B0BDE86F
:1005A000F08F00200146F9E72DE9F04D81EA0304C0
:1005B00004F0004B21F0004514464FF0000A23F0F0
:1005C000004150EA050220D054EA01021DD0C5F3D3
:1005D0000A570246C5F31303C1F31300C1F30A56C9
:1005E00040F4801543F48013A7EB0608101BD64691
:1005F00008F2FD3873EB050002D308F1010801E0B1
:1006000092185B41B8F1000F03DA00200146BDE803
:10061000F08D00204FF48011064684460EE0171B33
:1006200073EB050705D3121B63EB050306434CEA86
:10063000010C49084FEA300092185B4150EA01076B
:10064000EDD152EA030012D082EA040083EA0501E8
:10065000084305D0101BAB4106D20122002306E05F
:1006600000224FF0004302E06FF0010253101AEB3A
:1006700006004CEB085110EB0A0041EB0B01BDE802
:10068000F04D00F08AB90EB5C10F80EAE070084461
:10069000CA07002140F233438DE80E000A460B469C
:1006A00000F08AF903B000BD0EB540F2334102916B
:1006B0000021CDE900110A460B4600F07DF903B098
:1006C00000BD70B5C1F30A5201F000450024C1F32A
:1006D000130140F2FF3341F480119A4201DA002005
:1006E00070BD40F233439A42A2F2334203DC5242DD
:1006F00000F0ACF800E090402C43F1D0404270BDD7
:10070000C1F30A5210B5C1F3130140F2FF3341F4B3
:1007100080119A4201DA002010BD40F233439A4220
:10072000A2F2334203DC524200F090F810BD904038
:1007300010BD00F0004230F000400AD0C10D01F5BC
:100740006071C0F3160042EA0151C208400711432C
:10075000704700200146704730B5041E71F1000457
:1007600004DB4FF00044404264EB0101141E73F1BE
:10077000000405DB1C464FF00043524263EB0403C8
:100780008B4208BF824230BD30B5041E71F10004B7
:1007900004DB4FF00044404264EB0101141E73F18E
:1007A000000405DB1C464FF00043524263EB040398
:1007B000994208BF904230BD01F0004330B421F0AF
:1007C000004150EA010206D00A0DA2F56072C1F3A1
:1007D0001301002A02DC30BC00207047440F44EAB9
:1007E000C104C100E01830BC00EBC25000F09EB85C
:1007F000A0E8004FF0C040F804DB01B5AFF3008083
:10080000BDE8024001C10020704700F12C080C46F1
:1008100058F8040DAFF3008058F8040D8546200009
:1008200008BF012038E9F00018E9004F7047202A7E
:1008300004DB203A00FA02F1002070479140C2F137
:10084000200320FA03F3194390407047202A04DB69
:10085000203A21FA02F00021704721FA02F3D04039
:10086000C2F120029140084319467047202A06DB56
:10087000CB17203A41FA02F043EAE07306E041FA6E
:1008800002F3D040C2F1200291400843194670475C
:100890000FB4002300B589B00CA900910B996FF03B
:1008A0000042CB601E4B06931E4B07930423CDE9F9
:1008B00001321D4A089202466B46002000F082F980
:1008C00009B05DF814FB70B586B006464FF0FF30F6
:1008D0000091CDE90101002015460C4604903246F6
:1008E000694604A8FFF7D4FF02460498211825B1F1
:1008F00008B1084600E020462860049800280DD082
:10090000002A02DD0098884208D0081B0094CDE937
:1009100001043246694604A8FFF7BAFF06B070BD6D
:10092000FD0D00081B0E0008B10A00080029A8BF31
:100930007047401C490008BF20F00100704710B408
:10094000B0FA80FC00FA0CF050EA010404BF10BCBD
:10095000704749B1CCF1200421FA04F411FA0CF1EA
:1009600018BF012121430843A3EB0C01CB1D4FEA23
:1009700000614FEA102042BF002010BC704700EB1E
:10098000C35010440029A4BF10BC7047401C49004C
:1009900008BF20F0010010BC704710B5141E73F1A1
:1009A000000408DA401C41F1000192185B411A432F
:1009B00001D120F0010010BD2DE9F04D92469B467B
:1009C00011B1B1FA81F202E0B0FA80F22032904621
:1009D000FFF72DFF04460F4640EA0A0041EA0B01EB
:1009E00053465A46084313D0114653EA010019D022
:1009F000C8F140025046FFF729FF05460E46504613
:100A000059464246FFF713FF084305D0012004E092
:100A100020463946BDE8F08D0020054346EAE076E1
:100A20002C4337430A986305E40AA0EB0800002230
:100A3000FD0A44EA47540A3002D500200146E9E79E
:100A4000010510196941DDE9084500196941BDE852
:100A5000F04DA2E770B521F0004303430CD0C1F381
:100A60000A550024D5EB040564EB0403D617AD1A30
:100A7000B34102DB0020014670BD201841EB02515A
:100A800070BD0000064C074D06E0E06840F0010331
:100A900094E8070098471034AC42F6D3FFF78AFB7E
:100AA000C0640A08E0640A0800487047445D0A0808
:100AB00010B50446FFF7F8FF0068005D00F0010084
:100AC00010BD00002DE9FF4F087881B09946FF283E
:100AD00005D0491C2D2804D00024002308E0002361
:100AE0000BE00124F9E703EB830300EB4303491C0C
:100AF0000878FF28F7D104B15B42002000901478F9
:100B000001462D2C01D02B2C04D1521C2D2C12D09F
:100B10000024009400251678FF2E0ED00A24A0FB96
:100B200004C801FB0481002700FB0711521C16EBCF
:100B30000C006941EFE70124EBE7994450EA010218
:100B40000ED00024AA4D2646DFF8A88200F0C7F98F
:100B500082468B46B9F1000009DAC9F100071BE0B3
:100B600001980021C0E9001105B0BDE8F08F0746EB
:100B700012E0F80707D022462B4630464146FFF7E1
:100B8000A1FC0646884622462B4610461946FFF72A
:100B900099FC04460D467F10002FEAD1B9F1000FF1
:100BA000324643465046594602DAFFF7FDFC01E063
:100BB000FFF788FC009A0AB181F00041019AC2E96E
:100BC0000001D1E72DE9FF4F1F468DB0D7E901465F
:100BD0004FF0FF382E2045464FF000090B90B969C1
:100BE0006D1C0E988847396A824688470028F6D1DE
:100BF000BAF1FF3F0AD024F4D064002E11DDBAF11F
:100C00002B0F08D0BAF12D0F0BD102E0404611B0E6
:100C1000ABE744F48064B9696D1C0E98884782463E
:100C2000761E6946600501D52D2000E02B208DF849
:100C3000000001F1010B0DF1200809E0B9696D1CFC
:100C40000E98884782460F9844F40074761E05601B
:100C5000002E02DDBAF1300FF0D00B998A453ED15B
:100C600044F0800406E00F99681CA9F1010944F4DE
:100C700000740860B9696D1C761E0E98884782461C
:100C80003028F0D02BE00B998A4505D1200603D4FB
:100C900044F08004761E18E0504645F074F808B31E
:100CA0000DF11301761E44F400748B4508D2AAF1AD
:100CB00030000BF8010B200607D5A9F1010003E075
:100CC000200602D409F101008146A00502D50F9942
:100CD000681C0860B9696D1C0E9888478246002E12
:100CE000D1DC53E0002E51DDBAF1650F02D0BAF12C
:100CF000450F4BD1A00549D5B9696D1C24F440744A
:100D0000761E0E9888478246002E0CDD2B2804D0D4
:100D1000BAF12D0F07D144F48074B9696D1C0E9897
:100D200088478246761EE00501D52D2100E02B2163
:100D300008F8011BCDF82C8021E00DF12901761E69
:100D400044F4007488450CD2AAF1300010F0FF0082
:100D500088F8000002D10B99884509D908F10108EB
:100D600006E0E00501D5244801E042F20F7081461B
:100D7000B9696D1C0E98884782460F980560002E51
:100D800004DD504644F0FFFF0028D6D1F9690E98E3
:100D90008847FF208BF8000088F8000000200690AC
:100DA00007904B466A4608A906A8FFF78BFEA005E8
:100DB00002D46FF001002AE714F0240F0AD0E007F4
:100DC00014D1DDE906123868031D3B600068C0E9F4
:100DD00000120BE0DDE90601FFF7EEFC0146E0073B
:100DE00004D13868021D3A600068016028460EE7A9
:100DF000000024400000F03FF1D8FFFF426842B1FC
:100E0000016811F8013B23B1521EC0E900121846D7
:100E100070470121C160881E704742685AB1C3689B
:100E2000016843B983688B4205D0491E521CC0E952
:100E30000012002070474FF0FF3070472DE9F04D51
:100E400000231A461B1A8A4103DB00200146BDE835
:100E5000F08DC1F30A52C1F3130141F480154FF034
:100E6000000BD10702D100186D41521E0027044625
:100E700040F2FF11384601EB620A3E4680460246C8
:100E800000204FF48011FFF7E1FCC2197141BB183B
:100E900046EB0100B4EB030C75EB000C04D3E41A31
:100EA00065EB000517460E46241908F101006D4157
:100EB00080463428E3DDF91946EB0600091BA841FA
:100EC00003D24FF0FF32134601E0002213461BEB22
:100ED000070046EB0A51BDE8F04DFFF75EBD0EB5C9
:100EE00040F2334202920022CDE900221346FFF77E
:100EF00063FD03B000BD70B58D1810F8014B14F000
:100F0000030201D110F8012B231106D110F8013B87
:100F100003E010F8016B01F8016B521EF9D1ABB17F
:100F200010F8012B04F00C048A1A0C2C03D0A2EB4D
:100F300084129B1C08E010F8014BA2EB0422F8E796
:100F400012F8014B01F8014B5B1EF9D5A942D4D32D
:100F5000002070BDEFF3098141B1F1EE101A40F8A5
:100F6000041D20ED200A3A490A6810607047B0EC71
:100F7000200A02C8E1EE101A36490A68106070476C
:100F800072B64EF62250CEF2000040F2FF01C0F2DF
:100F90000001017041F26C50C2F20000016881F35F
:100FA000088841F2D640C2F2000041F2D741C2F2B5
:100FB00000010A78027041F26455C2F2000541F264
:100FC0006851C2F200010A682A60106880F309883B
:100FD0004FF0020080F31488BFF36F8FBDE8F00F6D
:100FE0000FBCBDE8005006BC62B608471A484FF077
:100FF00080510160704718484FF080510160704780
:1010000072B6EFF3098020E9F00F41F26455C2F2A5
:1010100000052E68306074461CF05CFB41F2D6403F
:10102000C2F2000041F2D741C2F200010A78027018
:1010300041F26851C2F200010A682A6044F0F40EDD
:101040001068B0E8F00F80F3098862B670470000BE
:10105000641500206815002004ED00E070B502461C
:10106000002301EB011404EB4115FE4C04EB850455
:1010700094F8C040102C2FDA01EB011404EB411559
:10108000F84C04EB8504703401EB011505EB4116B7
:10109000F44D05EB860595F8C05044F8252001EB8A
:1010A000011404EB4115EF4C04EB850494F8C040A7
:1010B000641CE5B201EB011404EB4116E94C04EBAE
:1010C000860484F8C05001EB011404EB4115E54C93
:1010D00004EB8504E2663DE0002016E001EB01141C
:1010E00004EB4115DF4C04EB85047034451C54F8C7
:1010F000255001EB011404EB4116DA4C04EB860495
:10110000703444F82050441CE0B20F28E6DB01EBB9
:10111000011404EB4115D34C04EB8504C4F8AC2056
:1011200000200CE001EB011404EB4115CD4C04EB65
:101130008504703454F820402344441CE0B2102845
:10114000F0DB1D0901EB011404EB4116C54C04EB67
:101150008604E56601EB011404EB4115C14C04EB78
:10116000850494F83340022C54DC01EB011404EBA9
:101170004115BC4C04EB850494ED0E0A01EB0114FF
:1011800004EB4115B74C04EB8504D4ED0D0A30EEA9
:10119000601A01EB011404EB4115B24C04EB850419
:1011A000A56C01EB011404EB4116AE4C04EB860474
:1011B000646C2C1B00EE104AB8EEC00AC1EE000AA7
:1011C00001EB011404EB4115A64C04EB8504E56E1C
:1011D00001EB011404EB4116A24C04EB8604646C91
:1011E0002C1B00EE104AB8EEC01A01EB011404EB00
:1011F00041159C4C04EB850494ED0D0A00EE810A28
:1012000001EB011404EB4115964C04EB850484EDCD
:10121000190A1CE201EB011404EB4115914C04EB9B
:10122000850494F83340032C78D101EB011404EBCE
:1012300041158C4C04EB8504A56C01EB011404EB07
:101240004116884C04EB8604646CA54267DB01EB15
:10125000011404EB4115834C04EB8504E56E01EBAE
:10126000011404EB41167F4C04EB8604A46CA542E8
:1012700056DD01EB011404EB41157A4C04EB8504B7
:1012800094ED0F0A01EB011404EB4115754C04EBCE
:101290008504D4ED0E0A30EE601A01EB011404EB64
:1012A0004115704C04EB8504E56C01EB011404EB73
:1012B00041166C4C04EB8604A46C2C1B00EE104A07
:1012C000B8EEC00AC1EE000A01EB011404EB4115AF
:1012D000644C04EB8504E56E01EB011404EB41164C
:1012E000604C04EB8604A46C2C1B00EE104AB8EE94
:1012F000C01A01EB011404EB41155A4C04EB8504B0
:1013000094ED0E0A00EE810A01EB011404EB411585
:10131000544C04EB850484ED190A7DE314E154E098
:1013200001EB011404EB41154E4C04EB850494EDE4
:101330000E0A01EB011404EB41154A4C04EB850441
:10134000D4ED0D0A30EE601A01EB011404EB4115E7
:10135000444C04EB8504A56C01EB011404EB41162D
:10136000404C04EB8604646C2C1B00EE104AB8EE73
:10137000C00AC1EE000A01EB011404EB4115394C1F
:1013800004EB8504E56E01EB011404EB4116354CCA
:1013900004EB8604646C2C1B00EE104AB8EEC01AF5
:1013A00001EB011404EB41152E4C04EB850494ED84
:1013B0000D0A00EE810A01EB011404EB4115294CE2
:1013C00004EB850484ED190A26E301EB011404EB18
:1013D0004115244C04EB8504E56E01EB011404EB8C
:1013E0004116204C04EB8604A46CA54257DA01EBAD
:1013F000011404EB41151B4C04EB850494ED0F0A1A
:1014000001EB011404EB4115164C04EB8504D4EDFB
:101410000E0A30EE601A01EB011404EB4115114C79
:1014200004EB8504E56C01EB011404EB41160D4C53
:1014300004EB8604A46C2C1B00EE104AB8EEC00A24
:10144000C1EE000A01EB011404EB4115054C04EB5D
:101450008504E56E01EB011404EB4116014C04EB2D
:10146000860401E0FC370120A46C2C1B00EE104A1E
:10147000B8EEC01A01EB011404EB4115FE4C04EB6D
:10148000850494ED0E0A00EE810A01EB011404EBD1
:101490004115F94C04EB850484ED190ABCE201EB1B
:1014A000011404EB4115F44C04EB850494ED0E0A91
:1014B00001EB011404EB4115EF4C04EB8504D4ED72
:1014C0000D0A30EE601A01EB011404EB4115EA4CF1
:1014D00004EB8504A56C01EB011404EB4116E64C0A
:1014E00004EB8604646C2C1B00EE104AB8EEC00AB4
:1014F000C1EE000A01EB011404EB4115DE4C04EBD4
:101500008504E56E01EB011404EB4116DA4C04EBA3
:101510008604646C2C1B00EE104AB8EEC01A01EB76
:10152000011404EB4115D44C04EB850494ED0D0A31
:1015300000EE810A01EB011404EB4115CE4C04EBE3
:10154000850484ED190A67E201EB011404EB4115EF
:10155000C94C04EB850494F83340042C9ED101EB74
:10156000011404EB4115C44C04EB8504A56C01EB9C
:10157000011404EB4116C04C04EB8604646CA542D4
:101580007EDB01EB011404EB4115BB4C04EB85043D
:10159000E56E01EB011404EB4116B74C04EB860435
:1015A000E46CA54254DB01EB011404EB4115B24C91
:1015B00004EB850494ED100A01EB011404EB4115D2
:1015C000AD4C04EB8504D4ED0F0A30EE601A01EB4C
:1015D000011404EB4115A84C04EB8504256D01EBC7
:1015E000011404EB4116A44C04EB8604E46C2C1BA0
:1015F00000EE104AB8EEC00AC1EE000A01EB011479
:1016000004EB41159C4C04EB8504E56E01EB0114E1
:1016100004EB4116984C04EB8604E46C2C1B00EEA2
:10162000104AB8EEC01A01EB011404EB4115924CBC
:1016300004EB850494ED0F0A00EE810A01EB01141E
:1016400004EB41158C4C04EB850484ED190AE3E1AD
:1016500001EB011404EB4115874C04EB8504E56EA6
:1016600001EB011404EB4116834C04EB8604A46CDB
:10167000A54256DB01EB011404EB41157E4C00E062
:10168000A4E004EB850494ED0F0A01EB011404EBD4
:101690004115794C04EB8504D4ED0E0A30EE601A46
:1016A00001EB011404EB4115734C04EB8504E56C6C
:1016B00001EB011404EB41166F4C04EB8604A46C9F
:1016C0002C1B00EE104AB8EEC00AC1EE000A01EB76
:1016D000011404EB4115684C04EB8504E56E01EB45
:1016E000011404EB4116644C04EB8604A46C2C1B1F
:1016F00000EE104AB8EEC01A01EB011404EB4115DC
:101700005D4C04EB850494ED0E0A00EE810A01EBBA
:10171000011404EB4115584C04EB850484ED190ABF
:101720007AE101EB011404EB4115534C04EB850401
:1017300094ED0E0A01EB011404EB41154E4C04EB41
:101740008504D4ED0D0A30EE601A01EB011404EBB0
:101750004115494C04EB8504A56C01EB011404EB25
:101760004116454C04EB8604646C2C1B00EE104AB9
:10177000B8EEC00AC1EE000A01EB011404EB4115FA
:101780003D4C04EB8504E56E01EB011404EB4116BE
:10179000394C04EB8604646C2C1B00EE104AB8EE46
:1017A000C01A01EB011404EB4115334C04EB850422
:1017B00094ED0D0A00EE810A01EB011404EB4115D2
:1017C0002D4C04EB850484ED190A25E101EB01148D
:1017D00004EB4115284C04EB8504E56E01EB011484
:1017E00004EB4116244C04EB8604E46CA54258DA61
:1017F00001EB011404EB41151F4C04EB850494ED3F
:10180000100A01EB011404EB41151B4C04EB850499
:10181000D4ED0F0A30EE601A01EB011404EB411510
:10182000154C04EB8504256D01EB011404EB411606
:10183000114C04EB8604E46C2C1B00EE104AB8EE4D
:10184000C00AC1EE000A01EB011404EB41150A4C79
:1018500004EB8504E56E01EB011404EB4116064C24
:1018600004EB8604E46C2C1B00EE104AB8EEC01AA0
:1018700001EB011402E00000FC37012004EB4115EC
:101880008F4C04EB850494ED0F0A00EE810A01EB06
:10189000011404EB41158A4C04EB850484ED190A0C
:1018A000BAE001EB011404EB4115854C04EB85040F
:1018B000E56E01EB011404EB4116814C04EB860448
:1018C000A46CA54254DA01EB011404EB41157C4CE5
:1018D00004EB850494ED0F0A01EB011404EB4115B0
:1018E000774C04EB8504D4ED0E0A30EE601A01EB60
:1018F000011404EB4115724C04EB8504E56C01EB1B
:10190000011404EB41166E4C04EB8604A46C2C1BF2
:1019100000EE104AB8EEC00AC1EE000A01EB011455
:1019200004EB4115664C04EB8504E56E01EB0114F4
:1019300004EB4116624C04EB8604A46C2C1B00EEF5
:10194000104AB8EEC01A01EB011404EB41155C4CCF
:1019500004EB850494ED0E0A00EE810A01EB0114FC
:1019600004EB4115564C04EB850484ED190A53E051
:1019700001EB011404EB4115514C04EB850494ED8B
:101980000E0A01EB011404EB41154D4C04EB8504E8
:10199000D4ED0D0A30EE601A01EB011404EB411591
:1019A000474C04EB8504A56C01EB011404EB4116D4
:1019B000434C04EB8604646C2C1B00EE104AB8EE1A
:1019C000C00AC1EE000A01EB011404EB41153C4CC6
:1019D00004EB8504E56E01EB011404EB4116384C71
:1019E00004EB8604646C2C1B00EE104AB8EEC01A9F
:1019F00001EB011404EB4115314C04EB850494ED2B
:101A00000D0A00EE810A01EB011404EB41152C4C88
:101A100004EB850484ED190A01EB011404EB411574
:101A2000274C04EB850494ED190AB5EEC00AF1EEDB
:101A300010FA0AD29FED230A01EB011404EB4115C1
:101A40001F4C04EB850484ED190A01EB011404EB2F
:101A500041151B4C04EB850494ED190A01EB0114AC
:101A600004EB4115164C04EB8504D4ED150A30EE59
:101A7000200A01EB011404EB4115114C04EB850421
:101A800084ED190A01EB011404EB41150C4C04EB35
:101A9000850494ED190A01EB011404EB4115084C7F
:101AA00004EB8504D4ED160A20EE200A01EB0114A4
:101AB00004EB4115024C04EB850484ED190A70BD5A
:101AC000FC370120000000002DE9F04188B000271C
:101AD00000250026A846DA4890F8430BD949097832
:101AE000884227D0D64890F8430B40B32020D649EF
:101AF0000880D64908834002D54908804020D34950
:101B00004883D149891C0880CD4890F8BC0A28B187
:101B1000D048007810B18814CF4908800121CFA0A7
:101B200022F044FAC64890F8430BC649087008B042
:101B3000BDE8F081C24890F8430B00B1F7E70024FC
:101B40008DE004EB041000EB4411BD48001D00EBD8
:101B50008100407B00B980E004EB041000EB4411ED
:101B6000B748001D00EB810090F86800C049095D8E
:101B7000884241D004EB041000EB4411B048001D32
:101B800000EB810090F8680028B9AD48B0F8BE0AB3
:101B9000B849086024E004EB041000EB4411A848A5
:101BA000001D00EB810090F8680000EB0010B249C6
:101BB000431804EB041000EB4411A148001D10F879
:101BC0002100C0EBC00000EB4000AC4901EB40023B
:101BD000ABA103A83CF02CF9012103A822F0E6F9FF
:101BE00004EB041000EB44119548001D00EB81004C
:101BF00090F868009E49085504EB041000EB44116E
:101C00008F48001D00EB810090F86800002823DD5C
:101C1000781CC7B204EB041000EB44118848001D87
:101C200000EB810090F86800042802D1681CC5B25E
:101C300012E004EB041000EB44118148001D00EB9E
:101C4000810090F86800012804D108F1010000F03B
:101C5000FF0801E0701CC6B200BF601CC4B2784827
:101C60000078A0423FF76DAF37BB20207649891C32
:101C7000088040200880202074494883400274492D
:101C8000088040207149488300207F4908707F49BF
:101C9000087001206F49087076480068002805DD4B
:101CA00074480068401E7349086062E04FF4805039
:101CB0006949891C08805CE0614890F8BC0A38B129
:101CC0006448007820B14FF480506349088004E0F4
:101CD0004FF480506049891C0880B8F1000F05DD81
:101CE0002020594908805949088305E02020564999
:101CF000891C088055494883A819002803DD402025
:101D00005149088003E040204F49891C08804C4815
:101D100090F8C10A022810D0002D06DC002E08DD44
:101D2000474890F8C10A012803D10120564908709C
:101D300006E000205449087002E000205249087073
:101D40003F4890F8C30A022810D0002E06DC002D70
:101D500008DD3B4890F8C30A012803D101204B4914
:101D6000087006E000204949087002E00020474959
:101D700008704548007828B14FF480403449891EE6
:101D8000088003E04FF48040314908803F480078E4
:101D900018B140202D49088302E040202B49488398
:101DA00000223B48816C406C28F06AF818B1102082
:101DB0002649088302E01020244948832048D0F8AF
:101DC000CA1A0191B0F8CE0AADF808000122DDE987
:101DD000010128F055F818B108201C49088302E0D9
:101DE00008201A4948830222294844300169C06802
:101DF00028F046F818B104201449088302E00420B2
:101E0000124948830E4890F8440B20B94FF4005013
:101E10001149088011E00A4890F8440B012804D1C8
:101E200040030D49891C088007E00B48001F00682B
:101E300080F400500849091F086000BF77E60000E1
:101E4000F837012058000020180C02400010024012
:101E50001A0802406B00002018040240E5BA95E61B
:101E60009DBFE8BF9EE68EA5E69585E99A9C000099
:101E7000500000205C0000200B8405083401002085
:101E80002573257300000000690000206A0000200F
:101E90007842012008B56A46002141F288301BF0E3
:101EA0008BFC05E06A4600214FF47A701BF084FC3D
:101EB0000A4800780028F5D012F036FF0CE012F046
:101EC0004DFF0748007808B9FFF7FEFD6A4600217C
:101ED0004FF47A701BF070FCF1E7000068130020EB
:101EE0002614002008B505E06A4600214FF47A70F8
:101EF0001BF062FC064800780028F5D006E06A4630
:101F000000210A201BF058FC10F062FEF7E70000E9
:101F10006813002000B58BB00AA8072100220592A3
:101F2000CDE90621089010464FF4005140F23332BB
:101F30004F4BCDE90132CDE903101C2000234D4A5F
:101F40004DA1009050481AF075FE0AA80721002202
:101F50000592CDE90621089010464FF48061662273
:101F60004A4BCDE90132CDE9031004200023484A51
:101F700048A100904C481AF05DFE0AA807210022F3
:101F80000592CDE90621089010464FF40061CC225D
:101F9000464BCDE90132CDE9031002200023444A2B
:101FA00044A1009048481AF045FE0AA807210022E3
:101FB0000592CDE90621089010464FF48061662213
:101FC000424BCDE90132CDE9031006200023404AFF
:101FD00040A1009043481AF02DFE0AA807210022D4
:101FE0000592CDE90621089010464FF480616622E3
:101FF0003D4BCDE90132CDE90310052000233B4ADA
:102000003BA100903E481AF015FE0AA807210022C5
:102010000592CDE90621089010464FF480616622B2
:10202000384BCDE90132CDE9031007200023364AB1
:1020300036A1009039481AF0FDFD0AA807210022B8
:102040000592CDE90621089010464FF48061662282
:10205000334BCDE90132CDE9031008200023314A8A
:1020600031A1009034481AF0E5FD0BB000BD00002E
:1020700020320020AD210008417070205461736B44
:10208000204755490000000054310020ECB20020E8
:10209000B5210008417070205461736B204D65615B
:1020A000737572650000000020B20020B8C30020E4
:1020B0003D210008417070205461736B20446174AD
:1020C0006153617665000000ECC2002050F50020ED
:1020D000951E0008417070205461736B20416C6143
:1020E000726D000084F4002084E40020B92200080E
:1020F000417070205461736B205553420000000002
:10210000B8E300201C060120E51E00084170702085
:102110005461736B20436F6D000000005005012077
:10212000E8160120F5210008417070205461736B9E
:10213000204D6F64427573001C16012008B5002401
:102140006A46002141F288301BF036FB05E06A4602
:1021500000214FF47A701BF02FFB0E480078002806
:10216000F5D000210CA021F021FF12E06A460021E9
:102170004FF47A701BF020FB641C0B48D0F8B80AAF
:10218000A04206D800240848D0F8B80A08B120F0C8
:10219000F5FEEBE768130020E4BBAAE599A8E5BCCF
:1021A00080E69CBA00000000F837012001E018F03A
:1021B000B1FEFCE708B56A46002140F6B8301BF0D6
:1021C000FBFA05E06A4600214FF47A701BF0F4FA3E
:1021D000074800780028F5D009E01FF0E7FB19F068
:1021E000CBF86A4600214FF47A701BF0E5FAF4E769
:1021F000681300201CB529E001AB6A46002108469F
:102200001AF03AFF0120124908701248407803285A
:1022100002D0102812D107E00E488078421D0D49E7
:102220000D4827F085FC0DE008220A490A4827F0EE
:102230007FFC0A4800881EF017FF03E008480949A0
:10224000086000BF00BF002001490870D4E700000B
:1022500058130020E8480120001001405A130020C4
:10226000BC4701204813002008B500F0B1FE44F03F
:10227000BDFA00F041F86A4600214FF4FA601BF005
:102280009BFA02F049FD002027F0A0FD012027F075
:102290009DFD1DF061FA68461AF042FC00F006FF51
:1022A000FFF738FE06E023F019FB6A460021012003
:1022B0001BF082FAF7E7000008B568461AF04EF9FD
:1022C00056F058F868461AF087F908E004490548BE
:1022D00025F076FC6A4600210A201BF06DFAF5E72E
:1022E00038510220A44602201FB568461FF0ACFA00
:1022F000019804B010BD000070B5FFF7F5FF04466B
:1023000003480068B4FBF0F528461BF033FB70BDB2
:1023100084C2050838B5446805460146204627F0C2
:102320004BFE002808BF38BD464A286811280DD04A
:1023300006DC0B282AD00E2838D00F2817D07CE0D6
:10234000282873D0B0F5107F0AD076E09268002A72
:1023500008BF38BD294601B02046BDE830401047CF
:10236000526801B029462046BDE830401047254656
:10237000204606F089FF0090406E0468684607F02A
:102380001BF8002C1CBF2846A04738BD204606F08D
:102390007BFF0090683006F079FE009803216C30D6
:1023A00006F0A2FE684607F007F846E0E9684868CC
:1023B00009680D2902D0202918D037E0002835DD22
:1023C0004FF48071204627F0C2FE204606F05CFFE5
:1023D000009090F82850684606F0EEFF15F0020FC6
:1023E0001ED00121204629F0FAFD19E0002817DD52
:1023F00025464FF48071204627F0A9FE284606F0B6
:1024000043FF009090F82840684606F0D5FF14F08E
:10241000020F08BF38BD0121284629F0E0FD38BD74
:102420002046BDE83840022138F072BAE86820B989
:1024300020464FF4807127F09DFD2846BDE83840C6
:1024400028F0B6BB301800202DE9F04786B00646CC
:10245000DDE90E59884617469A46119C0AF0F2FCAF
:102460004C201749CDE90210CDE9005953463A46B0
:102470004146304628F0E0FA05001BD006F004FF84
:1024800010222146049028F047F80E4C0499B4E835
:10249000CD133431A1E8CD1394E80D10A1E80D104F
:1024A00054F82C0D086004A806F086FF20684168E7
:1024B000284688470DF0CAFA06B02846BDE8F087DE
:1024C000152300083C18002070B5044686B08069CA
:1024D000B4F908C0658A00260091CDE90165CDE90F
:1024E00003C0B4F90C00B4F91050C118B4F90A00D3
:1024F000B4F90EC010442B46624600F007F80546BA
:10250000616800F087F906B0284670BD2DE9F04FEC
:1025100085B09846DDE91164DDE90E5791468A469B
:1025200083460AF08FFC04F14C001749CDE90210F4
:10253000CDE9005743464A465146584628F07CFAB2
:1025400005001BD006F0A0FE10223146049027F0B3
:10255000E3FF0E4C0499B4E8CD133431A1E8CD1358
:1025600094E80D10A1E80D1054F82C0D086004A893
:1025700006F022FF20684168284688470DF066FA79
:1025800005B02846BDE8F08F152300083C18002050
:10259000F0B5044680688C4989B051F820506068D5
:1025A000002800F00A81052806D006287DD01228D0
:1025B00000F0B48000F004B9E869002808BF0026E4
:1025C00051D0D5E90012AB688DE80F0004F110017D
:1025D0000FC90EF0ADFC002655F826000CF071FD79
:1025E000A169E8690A1A216901446069304408F068
:1025F00019FCA169E8690A1A21690144E069801B94
:1026000008F010FCE169E8690A1A6169014420696F
:10261000304408F007FDE169E8690A1A616901447C
:10262000A069801B08F0FEFC761C022ED4DBA86893
:102630000CF047FDE069E969D4F814C0431A206939
:1026400042186144801C521E08F098FDE169E86957
:10265000A2690B1A61690144101A401C921E08F00D
:102660008DFDEE6911E055F826000CF02AFDE069B9
:10267000831BA069821B606981192069304408F0BE
:1026800053FC761C022EEEDB0226D5E90301CDE9D0
:102690000001E169606901444B10A1698A1B811C3A
:1026A0002069304408F084F900E011E0D5E9050123
:1026B000CDE90001E0696169831E01440122A0693E
:1026C00002EB6101821B2069304408F071F977E068
:1026D000206806F0D9FD049020682AF05DFE50B114
:1026E000A068002818BF00200AD10498006F0028B5
:1026F00018BF012004E00498406F002818BF022092
:10270000049901EB8000C56E04A806F055FE002375
:102710001A462846216807F0FDFC51E0206806F0C3
:10272000B3FD0490866E002E08BF04A842D0A168B5
:10273000B0F95C70002908BF012103D003290CBF48
:102740000221002100EB8101406D0C6C0CF0E2FCD9
:1027500020460CF0B6FC06A808F018FEBDF81810CC
:10276000A88B0144ADF81810BDF81C10081AADF87C
:102770001C00BDF81A00801CADF81A00BDF81E0040
:10278000801EADF81E000498B0F96020B0F95E100C
:1027900006A80BF05DFE04A806F00EFE02200CF069
:1027A00055FD304606F070FD3A4606A9059007F043
:1027B000E3FD05A806F000FE02E0206829F06AFFAC
:1027C00009B00020F0BD0000EC340A08014908629D
:1027D000704700003C18002000294FF0100101D084
:1027E00027F0B5BC27F0C6BB002808BF704738B536
:1027F0000C4605460AF026FB284606F045FD0090EB
:102800004465684606F0D8FD284629F0F5FA0DF033
:102810001DF938BDF0B583B00F4605004FF0010437
:1028200021D00AF00FFB284606F02EFD0190866E9F
:1028300001A8009606F0C0FD394668460FF0F0FA90
:1028400078B100980024B04208D0284606F01CFD5C
:1028500001900099816601A806F0AEFD284629F096
:10286000CBFA0DF0F3F803B02046F0BD00BFFEE751
:102870002DE9F84F446805460146204627F09CFBA9
:10288000002808BFBDE8F88F28680B2873D00E28F1
:1028900005D00F2823D0B0F5107F30D075E020464A
:1028A00006F0F2FC009090F8746090F8757068463D
:1028B00006F082FD20462AF06FFD002865D0E8680A
:1028C0004168002961DD006820285ED1781CB0FBDA
:1028D000F6F106FB1101204600F014FB55E02546F9
:1028E000204606F0D1FC0090006F0468684606F0B0
:1028F00063FD002C1CBF2846A047BDE8F88F264684
:102900000027204606F0C0FC009090F8749090F8E4
:102910007580B0F930A0684606F04EFDEC6824B32F
:10292000304629F051F920B13946304629F057FB9D
:102930002BE0207A88B10121304629F047FD08F1CB
:102940000100B0FBF9F109FB1101304600F0DAFAA1
:102950000121304629F043FB17E00221304629F0DF
:102960003EFB50460CF0E0FC0FE00321304629F01E
:1029700036FB0AE0FFE7204606F086FC0090783040
:1029800006F084FB684606F017FD2846BDE8F84FC0
:1029900028F00EB9F0B585B00AAF97E8701000279F
:1029A00004978DE8701000F021F805B0F0BD70B507
:1029B00086B0B0F90840458AD0F818C00026CDE9A5
:1029C0000254CDE90016CDF810C0B0F90C10B0F9E2
:1029D0001040B0F90EC0B0F90A0019441044234663
:1029E000624600F003F806B070BD00002DE9FF4F0D
:1029F00085B01D46DDE912A7DDE9158916468B462F
:102A00000AF020FA264C0EB135B10AE02068806841
:102A100000688047064625B92068806800688047BE
:102A2000054620486FF07041C068884208BF47F0F3
:102A3000010709F154011C48CDE900A7CDE90201C5
:102A40002B4632465946059827F0F6FF050021D05F
:102A500006F01AFC10224146049027F05DFD241D6B
:102A60000499B4E8CD133431A1E8CD1394E8CD1125
:102A7000A1E8CD1154F8240D41F87009022081F825
:102A800074000F20C86704A806F096FC206841680F
:102A9000284688470CF0DAFF09B02846BDE8F08FD9
:102AA000F8180020FC180020712800082DE9F04FCC
:102AB0000446006889B028B12AF06EFC002808BFDF
:102AC000012500D00025FE4850F8256060680A28DE
:102AD00000F0718108DC002800F0DC8106283ED07F
:102AE00007280CD000F0E7B9122800F02F81192830
:102AF00002BFB06909B0BDE8F08F00F0DCB925680D
:102B00000AF0A0F9284606F0BFFB0090C76F6846A0
:102B100006F052FC0CF09AFF5FF0000556F8250015
:102B20000CF0CFFA2069C119491B4B1E61691A4686
:102B30002944284408F0F8F96D1C032DEED3D6E99A
:102B40000301CDE900012069C119491B4B1E6169D0
:102B50001A462944284407F02BFF00F0ACB9A068BE
:102B6000401E069024680AF06DF9204606F08CFBA2
:102B70000090C46F684606F01FFC0CF067FFDFF89A
:102B8000449359F82570002F1CBF069800EB800075
:102B90000DD000BFB7F84810A14205D107EB800166
:102BA000896809B11FB1C7E0FF6C002FF2D1502036
:102BB00006F0D8FA07006AD0502200210FF0BEF9C3
:102BC00070697864A7F8484059F82500F864A4F1C2
:102BD0000608BD4849F8257080FB08104110A1EB9C
:102BE000E070032108910122CDF8088007F140012F
:102BF000CDE90312069D05EB850107EB81010191EB
:102C000005EB450107EB81012831009108EBD871F4
:102C10004A10491001EBD173A1EB63010E18101A91
:102C2000059008F10700C11700EB51704FEAE00A68
:102C30000AFB08F4204606F095FA81462246002158
:102C40000FF07CF9DDE9042001282BDD0899012033
:102C500034463144A14220DDD31702EB537E02F00B
:102C6000070C802323FA0CF3444509DA0AFB04FC21
:102C70000CEBEE0C19F80CB04BEA030B09F80CB096
:102C80006840641CA14208DD0028F9D0ECE750211F
:102C90008E4808F00FFA00F00EB90598521C761C09
:102CA0009042D3DC04990298401A0490904226DDA9
:102CB000089B01213046334483421BDD4FEAE27C0E
:102CC00002EB5C7E02F0070C802424FA0CFC4045E9
:102CD00009DA0AFB00F404EBEE0419F804B04BEA3D
:102CE0000C0B09F804B06940401C834202DD002946
:102CF000F9D0ECE70498521C761E9042D8DC00987C
:102D000002210160009901200871009A03999160E5
:102D10000199C88001980021A0F804A00198C0F88A
:102D2000089001980161DDE90001C860DDE9010159
:102D300001800198A0F802800698032200EB800031
:102D400007EB8000114607F06BFCB4E0206806F04A
:102D50009BFA0290B0F9548090F85660D0F84490F5
:102D6000476B02A806F028FB25680AF06BF8284696
:102D700006F08AFA0390B0F87C5003A806F01CFB1A
:102D80000CF064FE684628F063FABDF80000A9194B
:102D90000844ADF80000246A38460CF0BBF9022064
:102DA0000CF054FA48460CF08CF94246694620462D
:102DB00007F0E2FA7FE0206806F066FA0290B0F9C8
:102DC000545090F85680476B866C02A806F0F4FACF
:102DD000D4F800900AF036F8484606F055FA039009
:102DE000B0F87C9003A806F0E7FA0CF02FFE6846D6
:102DF00028F02EFABDF8000009EB08010844ADF8F0
:102E00000000206A08F054FB0446384608F07FFBB7
:102E100025F00301042904BFBDF80610091A08D0E3
:102E20000C2908D1BDF90610091A491C01EBD17112
:102E30004910ADF8021025F00C0101290CD002292F
:102E400013D1BDF90420BDF90010521A121B02EB78
:102E5000D27201EB620106E0BDF80420BDF800105B
:102E6000521A121B1144ADF80010BDF80010621E7A
:102E70001144ADF80410BDF80210401E0844ADF82E
:102E8000060030460CF01DF94FF0FF31684607F0A0
:102E900041FC10E0206829F0FDFB206806F0F4F901
:102EA0000790B0F90610B0F90220891A491CC167D1
:102EB00007A806F081FA09B00020BDE8F08F0000F5
:102EC000C04E0A08A81C00206766666668640A0887
:102ED00038B505004FF000040CD009F0B3FF2846C8
:102EE00006F0D2F9009090F87540684606F064FA52
:102EF0000CF0ACFD204638BD014908607047000069
:102F0000FC180020002808BF704738B50C4605465D
:102F100009F098FF284606F0B7F9009090F8741071
:102F2000A1420CD980F87540684606F045FA28465B
:102F300028F062FF0521284629F051F802E0684692
:102F400006F03AFA0CF082FD38BD002814BF0029C3
:102F5000704770B582B00D46044609F073FF2046F5
:102F600006F092F90190866F01A8009606F024FA07
:102F7000294668460EF054FF70B10098B04208D060
:102F8000204606F081F901900099816701A806F0BA
:102F900013FA204628F030FF0CF058FD02B070BD47
:102FA00000B589B000200090029003900490059035
:102FB00006900790089019200190044800688068E6
:102FC00041686846884709B000BD0000F818002035
:102FD00010B500F0FDF800F003F800F0F3F810BDB4
:102FE00070B5002600201849088018490880184943
:102FF00008601849086018490860184908601849AD
:103000000860002400BFFDF705F9064600BF002553
:103010000BE000201049086000F074F800F08CF814
:103020000D4800680444681C85B2002DF1D00C489E
:1030300004600020084908600849086000BF304665
:10304000FDF7ECF800BF70BD74140020761400206A
:10305000781400207C1400208414002088140020A0
:103060008014002001460846044A1268904203D9A1
:10307000024A1268801A00E0002070478014002085
:1030800070B5002500BFFDF7C5F8054600BF06482E
:10309000046800BF2846FDF7C1F800BF2046FFF7CF
:1030A000E1FF0646304670BD8414002070B500254F
:1030B000FFF7E6FF044600BFFDF7ACF8054600BF8A
:1030C00000200449086000BF2846FDF7A7F800BFAC
:1030D000204670BD8414002070B5002500BFFDF7A8
:1030E00099F8054600BF0648046800BF2846FDF76A
:1030F00095F800BF2046FFF7B5FF0646304670BD85
:103100008814002010B509480088401C0749088031
:103110000748008818B900F085F806490860044897
:103120000088401C0249088010BD00007414002073
:10313000761400207814002010B50F480088401E37
:103140000D49088008460088A0B900F06BF80B49CB
:103150000860084600680A490968441A0948006876
:10316000A04201D20748046007480068A04201D28B
:103170000548046010BD0000761400207C14002077
:1031800078140020841400208814002010B5002436
:1031900000BF00BFFDF73EF8044600BFFFF7B2FFD7
:1031A00000BF1021064818F017F800BFFFF7C4FF52
:1031B00000BF2046FDF732F800BF00BF10BD000081
:1031C0005EF3012010B5FFF7E1FF10BD00BFFEE781
:1031D00010B500200249086000F00AF810BD000098
:1031E000701400200149086070470000701400202E
:1031F00010B5FFF779F804460848006840F0807081
:10320000064908600020064948600846006840F00A
:10321000010008602046FFF7E5FF10BDFCED00E06F
:10322000001000E00149486870470000001000E00D
:1032300070B503460C464FF6FF7100220FE0985C14
:1032400080EA1121002507E001F00106490816B1C6
:103250004AF2010041406D1C082DF5D3521CA242D8
:10326000EDD388B270BD000038B5014601EB011006
:10327000654C14F81000012801D0002038BD01EB86
:103280000110614C04EB4000447801EB011000EBAD
:1032900041155E4800EB850080F8334001EB0110DA
:1032A00000EB4114594800EB8400407848B101EB31
:1032B000011000EB4114554800EB840040780228CF
:1032C00002D19FED530A57E001EB011000EB4114CE
:1032D0004E4800EB84004078012809D001EB011032
:1032E00000EB4114494800EB8400407803281BD1CF
:1032F00001EB011000EB4114444810F82400C0EB2E
:10330000C00000EB4000434C04EB4000008D00EE99
:10331000900AF8EE600A9FED3E1A60EE810A9FED7A
:103320003E1A80EE810A27E001EB011000EB411408
:10333000364800EB8400407805281BD101EB0110D2
:1033400000EB4114314810F82400C0EBC00000EB42
:103350004000304C04EB4000008D00EE900AF8EE87
:10336000600AB7EE001A60EE810A9FED2B1A80EE1C
:10337000810A01E0B7EE000A002240E000230DE0E0
:1033800001EB0110204C04EB4000022404EBC204CA
:103390001C44005D0DF80300581CC3B2042BEFDB86
:1033A000DDED000A60EE800A01EB011000EB411434
:1033B000164800EB8400343000EB8200C0ED000AB8
:1033C00000230DE001EB01100F4C04EB400006243C
:1033D00004EBC2041C44005D0DF80300581CC3B28A
:1033E000042BEFDB01EB011000EB4115074800EB6C
:1033F00085004430009C40F82240501CC2B2042A90
:10340000BCDB01203AE7000024460120FC37012004
:1034100000401C46340100203333B34170B50446EC
:10342000049D581A2E1B7043161B90FBF6F008449F
:1034300070BD000000B587B0012143201EF0A4F943
:10344000012110201EF0E0F907220621294804F08E
:1034500035FC07221146274804F030FC00208DF887
:103460001A0001208DF81B0002208DF81800402062
:10347000059002208DF8190005A91E4804F0D6FB1E
:103480008020059005A91B4804F0D0FB01208DF891
:10349000180000208DF81B004FF48070059005A9DE
:1034A000154804F0C3FB4FF48070134948834FF470
:1034B000E13001900020ADF80800ADF80A00ADF849
:1034C0000C00ADF810000C20ADF80E0001A90B485F
:1034D00022F0C6FD012240F22551084822F09BFD52
:1034E0000121064822F054FD4021044822F038FD15
:1034F00007B000BD0004024000000240001001407F
:103500004FF480400C49088040200C49488320201B
:1035100048831020488308204883042048831020D3
:10352000074908802020088040200880C001054904
:1035300008804010088070471A08024000100240BE
:103540001A0C02401A04024070B500254FF4803472
:1035500000E0641E24B180201FF054FA0028F8D047
:1035600014B90325284670BD40F2FF501FF006FA3B
:103570002846F8E72DE9F041064600274848056847
:1035800001E04748056805F045000028F9D005F03E
:10359000040030B1032704201FF0F0F93846BDE8DD
:1035A000F08105F0010028B1012701201FF0E6F9A4
:1035B0003846F4E71FF020FAB04202D01027384610
:1035C000EDE740F2FF501FF0D9F900201FF03AFA62
:1035D00004463448204008B93846E0E704F000408B
:1035E00008B11C20DBE704F0804008B10920D6E7D1
:1035F00004F0005008B10A20D1E704F0805008B16F
:103600000B20CCE704F0006008B10C20C7E704F001
:10361000806008B10D20C2E704F0807008B10E2070
:10362000BDE704F4000008B10F20B8E704F48000FF
:1036300008B11020B3E704F4001008B11120AEE780
:1036400004F4801008B11220A9E704F4002008B1A6
:103650001320A4E704F4802008B114209FE704F4A9
:10366000003008B115209AE704F4803008B1162024
:1036700095E704F4004008B1172090E704F4804077
:1036800008B118208BE704F4005008B1192086E730
:1036900004F0080008B11A2081E738467FE70000EF
:1036A000342C014008E0FFFD70B500251048046887
:1036B00001E00F48046804F045000028F9D004F048
:1036C000040028B1032504201FF058F9284670BDD6
:1036D00004F0010028B1012501201FF04FF9284610
:1036E000F5E740F2FF501FF049F92846EFE70000E8
:1036F000342C014070B500250B48046801E00A48ED
:10370000046804F045000028F9D004F0040028B152
:10371000032504201FF032F9284670BD40F2FF5007
:103720001FF02CF92846F8E7342C01402DE9F04130
:1037300006460F464FF000082248056801E0214880
:10374000056805F045000028F9D005F0040038B1FF
:103750004FF0030804201FF011F94046BDE8F08146
:1037600005F0010030B14FF0010801201FF006F90B
:103770004046F3E71FF040F9B04203D04FF0100885
:103780004046EBE740F2FF501FF0F8F800201FF032
:1037900059F9044604F4604018B9200C38804046BA
:1037A000DCE704F4005008B11320D7E704F48040AC
:1037B00008B11020D2E704F4004008B10F20CDE793
:1037C0004046CBE7342C014070B500264FF48035DD
:1037D0000F48046802E06D1E0D48046804F04500BF
:1037E00008B9002DF7D115B104F0040028B1032663
:1037F00004201FF0C3F8304670BD04F0400028B12B
:10380000002640201FF0BAF83046F5E73046F3E7CF
:10381000342C0140F0B5ADF6CC0D05460E46002720
:1038200001A818F09BFE002290A10DF2644044F024
:10383000BBFE8DF81000284644F082FC8DF8100085
:103840009DF8100070B1002089490870002287A1FE
:10385000104644F0A9FE01A818F0BEFE01200DF6A6
:10386000CC0DF0BD0122314605A844F0CDFE8DF807
:1038700010009DF8100060B100207D490870002202
:103880007AA1104644F090FE01A818F0A5FE012090
:10389000E5E7022277A10DF5D36044F085FE8DF8AF
:1038A000110074A044F07AFC8DF81100284644F011
:1038B00047FC8DF811009DF8110048B1284644F0EE
:1038C000B9FD8DF81100284644F03AFC8DF811003E
:1038D00066A044F063FC8DF810000122314605A873
:1038E00044F092FE8DF8100062A044F057FC8DF871
:1038F0001100122231468FA844F086FE8DF8110087
:103900009DF81000002863D19DF8110000285FD1B8
:10391000002429E055A044F041FC8DF8100021035B
:1039200005A844F0C7FC8DF8100003AB4FF480529B
:10393000514905A844F090FF8DF810004DA044F0C7
:103940002DFC8DF8110021038FA844F0B3FC8DF8F5
:10395000110002AB4FF4805247498FA845F03EF961
:103960008DF81100601C84B20898B4EB103FD1D3DD
:103970000898C0F30B00002851D03CA044F00EFC86
:103980008DF81000210305A844F094FC8DF8100078
:103990000898C0F30B0203AB374905A844F05CFF5D
:1039A0008DF8100033A044F0F9FB8DF811002103CD
:1039B0008FA844F07FFC8DF811000898C0F30B022B
:1039C00002AB2D498FA845F009F98DF8110026E0CA
:1039D00028A044F0E3FB8DF811008FA844F0EEFB23
:1039E0008DF81100022223A1002044F0DDFD8DF8A6
:1039F00011001EA044F0D2FB8DF8110005A844F080
:103A0000DDFB8DF81100002218A1104644F0CCFD1A
:103A10008DF8110001A818F0DFFD02201FE715A0A6
:103A200044F0BCFB8DF811008FA844F0C7FB8DF863
:103A3000110002220FA1002044F0B6FD8DF8110004
:103A40000AA044F0ABFB8DF8110005A844F0B6FBCA
:103A50008DF81100002205A1104644F0A5FD8DF857
:103A6000110001A818F0B8FD0020F8E6303A000077
:103A70002E000020323A0000EC0302207CB56920C1
:103A80000021CDE900100D480D4A022103680D48C0
:103A900006F06CF9044640F60101204627F034FC9C
:103AA0000646204627F00EFC054600234FF47A72A6
:103AB000194626F091FF20467CBD000070130020BF
:103AC000F9F70308008C05087CB569200021CDE9D1
:103AD00000100848084A02210368084806F046F921
:103AE000044640F60101204627F00EFC054620461C
:103AF0007CBD0000701300205508040878AC050850
:103B00001CB569200021CDE900100548054A1021A7
:103B10000368054806F02AF9044620461CBD00004B
:103B200070130020E9090408A8AE05081CB532206E
:103B3000C821CDE900100548054A1221036805484F
:103B400006F014F9044620461CBD00007413002042
:103B5000E5160408F0B705082DE9FC4104460D46BA
:103B600016461F46224608A108483AF061F92B463E
:103B7000074A2B210748CDE9006706F0F7F8804691
:103B80004046BDE8FC810000257300004AF3012097
:103B9000151F0408D0BB0508BCB504460D462A46CF
:103BA00010A111483AF044F91048047027F096FB30
:103BB0000746A520FA213B460D4ACDE90010042115
:103BC0000C4806F0D3F80C4908600846006827F056
:103BD00079FB0746002340F6B832194626F0FCFE72
:103BE0003046BCBD257300003CF2012008140020C3
:103BF000A907040808AC05087C1300201CB5642044
:103C0000FA21CDE900100548054A0221036805485C
:103C100006F0ACF8044620461CBD000074130020DA
:103C2000492804089CC105087CB527F057FB0546C8
:103C3000002000902B46094A09210190084806F00F
:103C400095F80446204627F03DFB054600234FF437
:103C50007A72012126F0C0FE20467CBD15EF0308D4
:103C60002C8805087CB52B48007801280CD16920E8
:103C70000021CDE900102848284A2521036828485A
:103C800006F074F804460BE069200021CDE900102D
:103C90002148224A25210368224806F067F8044695
:103CA000204627F00FFB054600234FF47A72194691
:103CB00026F092FE1748B0F8B60A062804DC4FF446
:103CC0007A701949086016E01248B0F8B60AC0EBDD
:103CD0000010800000EE100AF8EEC00A9FED131AE3
:103CE00080EE810ADFED120A20EE200ABCEEC00A47
:103CF0000D4880ED000A204627F0E4FA054600232F
:103D0000094801210268284626F066FE0949086034
:103D100020467CBDF83701207013002061FB0308AA
:103D2000D0900508DC940508B01300200000B443CF
:103D300000007A44B41300202DE9FC4704460D46E8
:103D400016461F46224613A113483AF071F813484D
:103D5000006828F0CAF818B11048006826F062FF21
:103D60002B460F4A11210F48CDE9006705F0FEFFF1
:103D700080460D48407848B9404627F0A3FA81466E
:103D800000234EF66022194626F026FE4046BDE886
:103D9000FC870000257300004AF3012078130020FF
:103DA000191C0408F4B905080CB501207CB527F0EE
:103DB00095FA0546002000902B46094A07210190FC
:103DC000084805F0D3FF0446204627F07BFA054655
:103DD00000234FF47A72194626F0FEFD20467CBD82
:103DE0000921040884C005087CB504460D46064830
:103DF000CDE90045054A03210368054805F0B6FFF3
:103E0000064630467CBD000074130020B924040827
:103E100048C105087CB569200021CDE9001008489B
:103E2000084A02210368084805F0A0FF044640F64E
:103E30000401204627F068FA054620467CBD0000B4
:103E40007013002021F50308288905087CB5692036
:103E50000021CDE900100848084A022103680848FB
:103E600005F084FF044640F60101204627F04CFA95
:103E7000054620467CBD0000701300203D14040858
:103E800068B00508022001498860704700B0024010
:103E900010B51FF0E1FD10BD0246094B9A4201D258
:103EA000084801E00648103801F000531BB1064BEA
:103EB0000B40C36002E0044B0B408360704700007E
:103EC00010640240006002407D0F7D0F21B1026846
:103ED00042F00102026003E0026822F00102026087
:103EE00070470000016821F00101016000210160BC
:103EF00041608160C1600161212141614A4988427C
:103F000004D13D21484A103A91608CE0464918316D
:103F1000884205D14FF47461434A103A916082E0BF
:103F200041493031884205D14FF474113E4A103A6C
:103F3000916078E03C494831884205D14FF0746186
:103F4000394A103A91606EE037496031884204D1B5
:103F50003649354A103AD16065E0334978318842B4
:103F600004D13349304A103AD1605CE02E49903197
:103F7000884204D12F492C4A103AD16053E02A4993
:103F8000A831884205D14FF03D51274A103AD160FF
:103F900049E02949884204D13D21274A083A116065
:103FA00041E025491831884205D14FF47461224A15
:103FB000083A116037E020493031884205D14FF48A
:103FC00074111D4A083A11602DE01B49483188429E
:103FD00005D14FF07461184A083A116023E0164980
:103FE0006031884204D11149134A121F11601AE04E
:103FF00011497831884204D10D490F4A121F1160CE
:1040000011E00D499031884204D10A490A4A121F31
:10401000116008E00849A831884204D14FF03D51B1
:10402000054A121F11607047106002403D000020D9
:10403000400F002000003D201064024021B10268C2
:1040400042F02002026003E0026822F020020260D7
:10405000704710B501F080034BB122B1436943F0C2
:104060008003436103E0436923F0800343618029B7
:104070000BD02AB1036801F01E042343036004E05F
:10408000036801F01E04A343036010BD10B50022B5
:104090000268134B1A40CC680B6823434C692343D6
:1040A0008C692343CC6923430C6A23434C6A234322
:1040B0008C6A23434C6B23438C6B23431A4302606B
:1040C000426922F00702D1E90B3423431A434261CB
:1040D0000B6943604B6883608B68C36010BD000050
:1040E0003F801CF02DE9F04389B00D46040004BF69
:1040F00009B0BDE8F08308F0A5FE112D6BD0132D9B
:1041000057D02646204605F0BFF80290C06B05F058
:1041100028FA074602A805F04FF9A5F14100192831
:1041200098BF2035A8460024002F71DD00253046B9
:1041300005F0AAF80590C06B214605F01EFA8146ED
:1041400005A805F039F95FEA090002D005F09CF8EE
:1041500005460395002D58D02878A0F14101192972
:1041600098BF2030C5B203A805F026F945454CD1CB
:10417000002E4DD008F066FE304605F085F801901F
:10418000C06B05F0EEF9002818BF401E844244DCE5
:104190000198B0F93410A14231D0848601A805F00D
:1041A0000BF9304627F028FE0421304627F017FF90
:1041B00028E008F047FE204605F066F80090B0F9C8
:1041C0003450684605F0F8F80BF040FC691C2046B6
:1041D00000F066FC1CE008F035FE204605F054F8BF
:1041E0000190B0F9345001A805F0E6F80BF02EFC70
:1041F000290018BF691E204600F052FC08E001A803
:1042000005F0DAF80BF022FC02E0641CBC428DDB06
:1042100009B0BDE8F0430BF019BC0446B8E700282C
:1042200014BF00297047F8B50C46054608F00AFE91
:10423000284605F029F80090C66B684605F0BCF8E2
:104240002046FCF76DF8421C2146304605F0DDF8AB
:10425000284627F0D1FD0BF0F9FBF8BDF0B5446816
:10426000054685B0204605F00FF80190D0F888602B
:1042700001A805F0A1F8002E14BF01270027294648
:10428000204625F099FE002804BF05B0F0BD28683F
:10429000112876D006DC0B2870D00E286FD00F289E
:1042A0006ED0D4E00027212805D026282FD0B0F5E5
:1042B000107F6CD0CBE0E8684168002943DD0068DE
:1042C0000D2840D1304613F071FB002806DB304644
:1042D00013F06CFB0146204600F0E2FB002C7CD082
:1042E00008F0B0FD204604F0CFFF0290D0F888001F
:1042F00038B126F097FC0298C0F88870204627F065
:104300007BFD02A805F058F80BF0A0FB9CE0E868E4
:10431000012809D00A2802D00B2815D097E00A21DD
:10432000204627F05CFE92E0304613F03FFB002869
:1043300009DB304613F03AFB0146204600F0B0FBA3
:10434000204628F0C5F882E0002C45D008F07AFD20
:10435000204604F099FF0090D0F8880038B126F08C
:1043600061FC0098C0F88870204627F045FD68463B
:1043700005F022F80BF06AFB69E002E02FE043E071
:104380001BE0002F63D1E868007A38BB5FE0E86883
:1043900068B1007A28B10121204627F020FE05B03F
:1043A000F0BD0221204627F01AFE05B0F0BD032122
:1043B000204627F014FE05B0F0BD2646204604F046
:1043C00063FF0290D0F88400046802A804F0F4FFB0
:1043D000002C1CBF3046A04739E035E02CE02046D9
:1043E00004F052FF0090C06B05F051F80098D0F82F
:1043F000880026F017FC0098D0F8940004F010FE16
:10440000684604F0D9FF22E0E868416800291EDD13
:104410000168202910D00ADC092911D00A2918BF07
:104420001B2914D02046FFF75DFE05B0F0BD212901
:1044300018BF2229F6D10AE0204600F0C5F906E0AF
:1044400026F0A8FFB04202D1204628F041F82846C5
:1044500026F0AEFB05B0F0BDF0B585B00AAF97E829
:104460007010002704978DE8701000F021F805B057
:10447000F0BD70B586B0B0F90840458AD0F818C0D4
:104480000026CDE90254CDE90016CDF810C0B0F9F0
:104490000C10B0F91040B0F90EC0B0F90A00194480
:1044A00010442346624600F003F806B070BD0000D9
:1044B0002DE9FF4F85B01E46DDE91447DDE912897D
:1044C00092468B46169D08F0BDFC05F16C00304904
:1044D000CDE90210CDE900894FF0FF33524659462D
:1044E000059826F0A9FA05004BD004F0CDFE102265
:1044F0003946009026F010F8009880F88C40254C42
:104500004C30B4E88E17A0E88E1794E88E11A0E81E
:104510008E1154F8241D40F88419002180F8901061
:10452000C686284604F0B0FE0190B0F9381019B9DB
:10453000C06C06F0E7FF01460198C26AB0F980300E
:10454000126801EB4301561828F050FD074601A8F8
:1045500004F032FF32463946284628F03BF96846D7
:1045600004F02AFF04F090FF0646284604F08CFE73
:104570000090C663684604F01FFF20684168284623
:1045800088470BF063FA09B02846BDE8F08F0000B9
:104590005D4200083C1900202DE9F041044688B036
:1045A000006804F071FE0690468ED0F8885006A888
:1045B00004F002FF002D18BF012506F00106206857
:1045C00028F0EAFE002D18BF00200FD07D4951F8D9
:1045D00020506068002800F0EE80022800F0CE80B5
:1045E00005280CD012287DD000F0E8B8002E18BFA6
:1045F0000120EBD1002814BF02200320E6E7D5E913
:104600000123A86A29688DE80F0004F110000FC883
:104610000CF08EFC5FF0000655F826000AF051FD04
:10462000A169A86A0A1A216901446069304406F048
:10463000F9FBA169A86A0A1A21690144E069801B93
:1046400006F0F0FBE169A86A0A1A61690144206971
:10465000304406F0E7FCE169A86A0A1A616901447E
:10466000A069801B06F0DEFC761C022ED4DBA86A53
:1046700002281BDDA8680AF024FDE169A86AD4F8C5
:1046800010C00B1A0CEB00014A1E616901440CF1C9
:10469000020006F073FDE169A86AA2690B1A61695C
:1046A0000144101A401C921E06F068FDD5E9030172
:1046B000CDE90001E1696069A26901444B10A96A72
:1046C000D4F810C0521A8C44811C604606F070F970
:1046D000D5E90501CDE90001A069AB6A6169C21A9B
:1046E000E06900E019E001444FF0010C0CEB6101BE
:1046F000D4F810C09C44831E604606F059F9686ADD
:104700000AF0DFFCE2696169A369501A181A401CBB
:10471000091D121F06F086FC50E0206804F0B4FD6D
:104720000090B0F88060B0F98280C76C684604F0F1
:1047300043FE208AB11C0844ADF80800A08A801C02
:10474000ADF80A00A08BA18A401A218B891B081A98
:10475000C01EADF80C00A08B801EADF80E0002202C
:104760000AF074FD38460AF0D5FC286A0AF0A9FC64
:10477000424602A9206A05F0FFFD1FE06169E06979
:104780004FF0FF32401AA0F1080102EB6106411C14
:10479000A269801B4410A2EB6107E8690AF091FC52
:1047A000002E0BDBBA19B91B204606F03BFB641C3C
:1047B000761EF7D502E0206827F06CFF08B00020D5
:1047C000BDE8F081C84E0A08002808BF70472DE9EF
:1047D000F04F9DB0064608F035FB304604F054FD1E
:1047E0000E90304626F09CFF82460E98B0F9367047
:1047F00090F89010099190F88C80D0F83C90B0F926
:1048000034000690484604F0ACFE04460E98B0F81A
:104810008E100C91B0F982100791C16C0891D0E90B
:104820000012CDE90412D0F89450016D1091416D41
:104830001191816D1291C16D1391016E1491416EB0
:104840001591016F1691416F1791806F18900EA806
:1048500004F0B2FD304626F073FE04F015FD0D9015
:10486000D0F800B00DA804F0A7FD4FEA2B4042425B
:104870000FFA8BF0414204A809F0EAFD18F0020F8C
:104880001ABFBDF81200C01BBDF81600ADF812002B
:10489000304626F055FE0221CDF800A0CDE9017189
:1048A0000146BDF91230BDF91020002012F0E7FFDB
:1048B000074618F0010F07D03846099913F02BFB73
:1048C0000121384613F032FA4FF00008002C0BD9C2
:1048D0004146484604F051FE0146384612F004FDB8
:1048E00008F101084445F3D800240DF1400800BF49
:1048F00058F824202146384613F045FA641C032C4E
:10490000F6D300240DF14C08214658F824203846EF
:1049100013F027FC641C032CF6D300240DF1580877
:10492000214658F82420384613F0D3FA641C032C8F
:10493000F6D315B3284604F0A7FC0F9030F8028B8D
:1049400000240546B8F1000FC8BF4FF0010911DD82
:1049500005EBD40004F00701007809FA01F10842E0
:1049600014BF012200222146384613F048FA641C85
:104970004445EDDB0FA804F01FFD38460C9913F0F9
:1049800078FA3846089913F01FFA3846079913F059
:10499000D1FB384627F09CFD3146384613F082FAA9
:1049A0003846069913F0D6FA0121304627F017FB56
:1049B000304604F069FC0E90C0F888700EA804F030
:1049C000FBFC0BF043F81DB0BDE8F08F38B50500D7
:1049D0004FF000040CD008F035FA284604F054FCDF
:1049E0000090D0F88840684604F0E6FC0BF02EF802
:1049F000204638BD38B505004FF000040CD008F053
:104A000021FA284604F040FC0090B0F93440684692
:104A100004F0D2FC0BF01AF8204638BD01490860BA
:104A2000704700003C190020002808BF704738B5C7
:104A30000C46054608F006FA284604F025FC0090CE
:104A4000D0F88850A0F88E40684604F0B5FC1DB13F
:104A50002146284613F00DFA0AF0F8FF38BDF8B5E4
:104A60000C4605004FF0000618D008F0EBF9284678
:104A700004F00AFC0090B0F93660D0F88850C48683
:104A8000684604F099FC3DB1284626F049FE0146EF
:104A90002246284627F09EFE0AF0D8FF3046F8BD91
:104AA00038B50C46050008BF38BD08F0CBF92846DC
:104AB00004F0EAFB0090C06B04F053FD002818BF1F
:104AC000401E844216DC0098B0F93410A1420BD08D
:104AD0008486684604F070FC284627F08DF904218E
:104AE000284627F07CFA02E0684604F065FC0AF0EC
:104AF000ADFF38BD0446E6E7002808BF704738B56B
:104B00000C46054608F09EF9284604F0BDFB0090CF
:104B1000A0F88240684604F04FFC284627F06CF964
:104B20000AF094FF38BD002808BF704738B50C461E
:104B3000054608F087F9284604F0A6FB0090048794
:104B4000684604F039FC284600F025F8284627F08E
:104B500053F90AF07BFF38BDF8B50D4606004FF05B
:104B6000000416D008F06EF9304604F08DFB00907A
:104B700090F88C20002DC2F340040CBF22F00201FB
:104B800042F0020180F88C10684604F015FC0AF02F
:104B90005DFF2046F8BDF8B5044604F075FB0146FC
:104BA0000090B0F93800002804BFC86C06F0AAFCD9
:104BB0000099CA6AB1F98030126800EB43001518F9
:104BC000084628F013FA0646684604F0F5FB2A4624
:104BD0003146204627F0FEFDF8BD38B50D460024CD
:104BE00004F052FB0090C06B294604F0C6FC054659
:104BF000684604F0E1FB1DB1284604F045FB04467D
:104C0000204638BD4278012A0ED04278032A0BD0C4
:104C10004278052A08D04278082A05D042780A2A24
:104C200002D04278022A01D11F211BE04278042AD7
:104C30000BD04278062A08D04278072A05D042785D
:104C4000092A02D042780B2A01D11E210AE00278FB
:104C5000D31702EB93739B10A2EB83030BB91D21B7
:104C600000E01C218278521C827082788A420CDD1E
:104C7000012282704278521C427042780C2A04DD74
:104C8000012242700278521C027070474278012A59
:104C90000ED04278032A0BD04278052A08D04278F9
:104CA000082A05D042780A2A02D04278022A01D185
:104CB0001F211BE04278042A0BD04278062A08D034
:104CC0004278072A05D04278092A02D042780B2A76
:104CD00001D11E210AE00278D31702EB93739B10D7
:104CE000A2EB83030BB91D2100E01C218278012A6D
:104CF00003DD8278521E82700CE081704278012AB6
:104D000003DD4278521E427004E00C2242700278A9
:104D1000521E02707047000010B500201CF0D8FF32
:104D20001CF094FF1CF038FF01200A4981F8410B68
:104D3000002404E0012008490855601CC4B205485D
:104D40004078044909780844A042F3DC16F014FBCB
:104D500010BD0000F837012000F30120704700006B
:104D600010B5144820F0AAF8124800F055FD11487B
:104D7000FDF72CFD0F48FEF7BFF80E48FFF74EFE7B
:104D80000C4801F053FD0B4813F018F8094815F0D2
:104D90001BFC084814F094FA06480EF0D3FE0548B0
:104DA00020F06CFF03481CF04BFC19201DF0B2FCF6
:104DB00010BD00002814022070B5ADF50E7D002452
:104DC0000025684617F0CAFB00220CA101A843F099
:104DD000EBFB0BA043F008FA06460CA043F004FAE4
:104DE0000646002205A1104643F0DEFB684617F098
:104DF000F3FB01200DF50E7D70BD0000303A000080
:104E000053797374656D4C6F670000004461746181
:104E10004C6F67002DE9F043E5B0074640F602010C
:104E20004D48006826F070FA814600268EE00A2080
:104E300000FB076149480068401E814223D90020D9
:104E40008DF804008DF8050001AB3246002148467C
:104E500014F075FA01AB32460121484614F06FFA9E
:104E6000002507E0A91C01AB3246484614F067FA5A
:104E7000681CC5B23A480078401C39494978084452
:104E8000A842EFDC60E001AB32460021484614F056
:104E900056FA32480068401E0A2202FB0762811A55
:104EA0000BAA30481EF010F80A2000FB0760421CD5
:104EB0002DA101A838F0BCFF01AB324600214846C5
:104EC00014F03DFA002405E00BA8005D01A9085587
:104ED000601CC4B2142CF7DB00208DF8170001AB66
:104EE00032460121484614F02AFA4FF00008002506
:104EF00022E01E48405DE8B100240BE005EB85018F
:104F000004F1140000EB41000BA9085C01A908554D
:104F1000601CC4B20A2CF1DB00208DF80D0008F1F2
:104F2000020101AB3246484614F009FA08F10100CB
:104F300000F0FF08681CC5B209480078401C084909
:104F400049780844A842D4DC701CC6B20A2EFFF689
:104F50006EAF65B0BDE8F08374130020101400201C
:104F6000F8370120ECF201202564000000F3012055
:104F70002DE9F041B2B006460F4640F602013F4827
:104F8000006826F0C1F98046002572E00A2000FB87
:104F900006513B480068401E814217D900208DF819
:104FA00000008DF801006B462A460021404614F0AF
:104FB000C6F96B462A460121404614F0C0F96B46FB
:104FC0002A460221404614F0BAF950E06B462A46C0
:104FD0000021404614F0B3F927B92AA12D4838F032
:104FE00027FF03E02CA12B4838F022FF244800685B
:104FF000401E0A2202FB0652811A0AAA25481EF008
:105000008BFF0A2000FB0650421C27A1684638F09F
:105010000FFF6B462A460021404614F090F9002409
:1050200005E00AA8005D0DF80400601CC4B2142C51
:10503000F7DB00208DF813006B462A46012140461D
:1050400014F07DF9002407E00AA904F11400085CBB
:105050000DF80400601CC4B2282CF5DB00208DF88C
:1050600027006B462A460221404614F068F9681C66
:10507000C5B20A2D8ADB32B0BDE8F081741300207E
:105080001014002053797374656D4C6F672E637331
:1050900076000000ECF20120416C61726D4C6F678C
:1050A0002E6373760000000025640000002808BF0E
:1050B00070472DE9F04F91B00E46044607F0C2FE4E
:1050C000204604F0E1F8039090F854A0D0F8349012
:1050D000876DC56C03A804F06FF927B131462046EF
:1050E000B84700F0B8B901274FF00008122E75D06C
:1050F00006DC082E73D0102E72D0112E3DD006E0A3
:10510000132E70D01D2E00F0F3801E2E6AD0202E9C
:10511000C0F2A181BAF1000F00F00181204604F035
:10512000B3F80590D0F834A0D0F84C9005A804F05E
:1051300043F9BAF1000F00F0F280504604F0A4F8F1
:105140008246494606900AF05BFB81465046FBF7D3
:10515000E7F8484540F2E080D14448460AF0FCFABE
:1051600009EB00014846FBF7FDF806A804F024F916
:105170000521204626F033FFD1E0B9F1000F00F001
:105180006A81484604F080F80646294604900AF0F1
:1051900037FB064430460AF0CFFA0546CDF80880C2
:1051A0000AF0F8FA0746681C1FFA80F840460AF031
:1051B000F1FA0546AF420CD1414602A80AF0AAFA1C
:1051C0002A4602A93046FBF76CF80521204626F056
:1051D00006FF04A804F0F0F800F03DB92FE03AE033
:1051E00033E000E059E0B9F1000F00F034814846A7
:1051F00004F04AF80646294604900AF001FB0644EA
:1052000030460AF099FA0546CDF808800AF0C2FA4D
:105210008046681E87B238460AF0BCFA0546A845A3
:10522000D7D1394602A80AF075FA2A4602A93046B3
:10523000FBF737F80521204626F0D1FEC9E7691CA7
:10524000204600F033FC00F006B9691E204600F04D
:105250002DFC00F000B9002D00F0FD80691E2046F5
:1052600000F024FC204604F00FF80190C76C456B59
:1052700001A804F0A1F8002D00F0ED80284604F00C
:1052800003F80646394602900AF0BAFA0546304657
:10529000FBF746F8A84229D918E0204603F0F4FFAE
:1052A0000190C76C456B01A804F086F8002D7CD0F6
:1052B000284603F0E9FF0646394602900AF0A0FAB4
:1052C00005463046FBF72CF8A8420FD9354428464E
:1052D0000AF042FA29182846FBF744F802A804F01D
:1052E0006BF80521204626F07AFEB4E002A810E013
:1052F000204603F0C9FF0390BAF1010F08BF80F800
:10530000548005D080F854702946204600F0CEFB2A
:1053100003A804F051F89EE006A804F04DF8B0B2DE
:105320000890204603F0B0FF06460290B0F938001E
:10533000002813DD706B4FF0000940B103F0A4FFAB
:1053400000900CF05BFB8146684604F035F8B6F936
:10535000381009F101008842C8BF47460298C06C66
:10536000099002A804F028F8002F74D008980AF0D9
:1053700011FA074626464FF00009204603F084FF45
:105380000590406B40B103F07FFF0A90FAF7C8FF29
:1053900081460AA804F010F8059907EB0900498F27
:1053A000401A00F1010905A800E054E004F004F8F7
:1053B000B9F1000F2ADD304609F1100903F064FF4E
:1053C0000090D0F834B0408F00EB090A684603F033
:1053D000F3FF5146584603F06DFF5FEA00093AD0EB
:1053E000BBF1000F07D103F04FFF0D9080F8008054
:1053F0000DA803F0E1FF304603F046FF0090A0F84F
:105400003AA0C0F83490684603F0D6FF204603F077
:105410003BFF0290466B02A803F0CEFF304603F03C
:1054200033FF06460F9009990AF0EAF90644304620
:10543000FAF776FF421CF0193146FAF732FF304690
:1054400008990AF067F90FA803F0B6FF0521204676
:1054500026F0C5FDF3E6204626F0CEFC0AF0F6FA6B
:1054600011B0BDE8F08F70B54468054682B02046A3
:1054700027F092FF06462946204624F09DFD00288D
:1054800004BF02B070BD28680F2836D004DC0B289A
:1054900039D00E2842D058E0A0F58070133804D0DF
:1054A000A0F580702D3811D04FE0204626F024FF63
:1054B0002046002135F0AAFF204603F0E5FE0190CA
:1054C000C06F002126F061FE01A824E0E86878B1F1
:1054D000017A41B10168204600F03BF901212046E4
:1054E00026F07DFD31E00221204626F078FD2CE0FB
:1054F0000321204626F073FD27E00121204635F0E8
:1055000085FF02B070BD204603F0BEFE009034302F
:1055100003F0BCFD684603F04FFF16E0AEB1E8684B
:105520004168002911DD01681B290ED009DC092919
:105530001CBF0A290D2908D02046FFF7B7FD02B08D
:1055400070BD212918BF2229F6D1284625F030FB4D
:1055500002B070BD2DE9F04186B00DF1300898E839
:10556000F0104FF00008CDF814808DE8F01000F036
:1055700029F806B0BDE8F08170B5044686B0D4E9DC
:10558000056CB0F90850408A0DF1080E8EE86110E4
:105590000020CDE90010B4F90C00B4F91050C11886
:1055A000B4F90A00B4F90EC010442B46624600F06C
:1055B00009F805001CBF618A00F060FA284606B0B1
:1055C00070BD00002DE9FF4F85B09846DDE9165407
:1055D000DDE9126B91468A46159F07F033FC04F112
:1055E000580231494BF48050CDE90212CDE90060F8
:1055F00043464A465146059825F01EFA04004CD011
:1056000003F042FE10223946049024F085FFDFF8B3
:105610009CC004999CE8CD1101F1600989E8CD1185
:10562000012081F85500681C18BF012081F8800016
:10563000002DD8BF082528B2088700254D87461CB5
:1056400004A84D6303F0B8FE204603F01DFE009051
:10565000D0F83480408F8719684603F0ADFE394694
:10566000404603F027FE060013D0B8F1000F06D124
:1056700003F00AFE0190057001A803F09DFE20468C
:1056800003F002FE009047874663684603F094FEED
:1056900003E0204625F0C6FA00240AF0D7F909B045
:1056A0002046BDE8F08F0000675400087419002000
:1056B00030B583B005004FF0000415D007F0C2FBF1
:1056C000284603F0E1FD0090406B40B103F0DCFDA3
:1056D00001900CF093F9044601A803F06DFE6846B2
:1056E00003F06AFE0AF0B2F903B0204630BDF0B50F
:1056F00083B016460D00044612BF002C03B0F0BD67
:1057000007F0A0FB204603F0BFFD002701902F709B
:10571000406BA8B103F0B8FD00900CF06FF90146A2
:1057200000980AF06DF80446701E84420FDC224691
:1057300028460099FAF7B5FD684603F03DFE2F555F
:1057400001A803F039FE0AF081F903B0F0BD044668
:10575000EDE7002808BF70472DE9F04186B00C4600
:10576000074607F06FFB384603F08EFD0090406B54
:10577000002849D003F088FD03900098806E09F05E
:10578000C9FC8046384625F0CBFF0646039805F055
:105790008FFE0546009890F8601001F00301012982
:1057A00018D002290FD0416EC06A00680844201A40
:1057B000441E03980CF022F9002C11DA002138461F
:1057C00000F074F917E0701B401C00EBD070A4EBE4
:1057D0006004EEE7406E711B081A201A441CE8E7CB
:1057E000A54204DB0246214603980CF091F80146DD
:1057F000384600F05BF903A803F0DEFD404609F0EF
:1058000089FC384626F0F8FA684603F0D5FD0AF020
:105810001DF906B0BDE8F0810149886070470000BD
:1058200074190020002808BF704738B50C4605469B
:1058300007F008FB284603F027FD00908466284601
:1058400026F0DAFA684603F0B7FD0AF0FFF838BD33
:10585000002808BF70472DE9F04385B00C46054687
:1058600007F0F0FA284603F00FFD0090B0F9381069
:10587000468F4FF00008A14245D012DD406B80B149
:1058800003F002FD01900CF0B9F8A04206DD2146BC
:10589000019809F0B5FF019901F8008001A803F013
:1058A0008BFD684603F088FDA01B461C284603F0CC
:1058B000EBFC0290D0F83490408F871902A803F0D7
:1058C0007BFD3946484603F0F5FC060013D0B9F1DC
:1058D000000F07D103F0D8FC039080F8008003A8E4
:1058E00003F06AFD284603F0CFFC02904787466329
:1058F00002A803F061FD284603F0C6FC009004876F
:10590000284626F079FA684603F056FD0AF09EF81C
:1059100005B0BDE8F0832DE9F04F87B08A46050059
:105920004FF0000804BF07B0BDE8F08F07F08AFA17
:10593000284603F0A9FC0090B0F93870446B684623
:1059400003F03AFD0026BAF1000F7ED054B1204694
:1059500003F09AFC0190FAF7E3FC00F1010801A8BA
:1059600003F02AFD50460CF049F80446B8426DDCBD
:105970002146504609F044FF471CA7EB08094FF0A9
:105980000008284603F080FC0390406B40B103F010
:105990007BFC0590FAF7C4FC804605A803F00CFDDB
:1059A000039909EB0800498F401A00F1010803A888
:1059B00003F002FDB8F1000F2ADD284608F11008B7
:1059C000049503F061FC0290D0F834B0408F00EBF6
:1059D000080902A803F0F0FC4946584603F06AFCA7
:1059E0005FEA000840D0BBF1000F06D103F04CFC89
:1059F0000690067006A803F0DFFC049803F044FC50
:105A00000290A0F83A90C0F8348002A803F0D4FCC9
:105A1000284603F039FC0090406B03F035FC3A4611
:105A200051460190FAF73DFC0198384400F8016CAA
:105A30000098C464B0F938108C4201BF90F854103B
:105A40000129611EC16401A801E006E014E003F031
:105A5000B3FC684603F0B0FC06E00098343003F075
:105A600015FB00984687C664284626F0C5F909F05C
:105A7000EDFF07B0BDE8F08F3C4679E7002808BF8E
:105A8000704738B50D46044607F0DCF9204603F0B0
:105A9000FBFB009018B10566204626F0ADF968467C
:105AA00003F08AFC09F0D2FF38BD000010B582B0C7
:105AB0000C4603F0E9FB0090406BE8B103F0E4FB17
:105AC00001900BF09BFF009991F85420002A18BF19
:105AD0000122002C15DB844215DC00BFB1F938002F
